:100000000C945E000C9486000C9486000C94860080
:100010000C9486000C9486000C9486000C94860048
:100020000C9486000C9486000C9486000C94860038
:100030000C9486000C9486000C9486000C94860028
:100040000C94F2030C9486000C9486000C948600A9
:100050000C9486000C9486000C9486000C94860008
:100060000C9486000C948600000000080002010039
:100070000003040700000000000000000102040863
:100080001020408001020408102001020408102002
:10009000040404040404040402020202020203032E
:1000A0000303030300000000250028002B000000CC
:1000B0000000240027002A00AE02BA0211241FBE4D
:1000C000CFEFD8E0DEBFCDBF11E0A0E0B1E0ECE1C2
:1000D000F2E102C005900D92A032B107D9F721E0FC
:1000E000A0E2B1E001C01D92A934B207E1F710E02F
:1000F000CDE5D0E004C02197FE010E94D307CC35A6
:10010000D107C9F70E94E3030C9401090C94000085
:10011000EF92FF920F93CF93DF937C0160E080E238
:1001200091E00E948407C0E0D0E0CE15DF056CF4BA
:10013000C233D10551F000E020E040E0BE0180E292
:1001400091E00E9444072196F0CFDF91CF910F916B
:10015000FF90EF900895CF92DF92EF92FF920F936E
:100160001F93CF93DF938C016A017B010E9488006B
:100170006AEF80E291E00E948407C0E0D0E0C017FF
:10018000D10764F4C233D10549F0A7019601BE013D
:1001900080E291E00E9465072196F1CFDF91CF9137
:1001A0001F910F91FF90EF90DF90CF900895CF9324
:1001B000DF93181619060CF04CC0EC0140910E01AB
:1001C00050910F0160911001709111010E94AB00DC
:1001D000C333D105F4F140910601509107016091BC
:1001E000080170910901CE01C2970E94AB00C5368B
:1001F000D1057CF140910A0150910B0160910C01F5
:1002000070910D01CE01845691090E94AB00C7394F
:10021000D105FCF04091120150911301609114013D
:1002200070911501CE01865991090E94AB00C93C1D
:10023000D1057CF040911601509117016091180191
:1002400070911901CE01885C9109DF91CF910C94D6
:10025000AB00DF91CF9108950F931F93CF93DF935E
:1002600080E291E00E94DA06C0913801D091390114
:10027000C93CD10584F0C85CD10940911601509168
:1002800017016091180170911901CE010E94AB0015
:1002900009E010E035C0C739D1055CF0C659D10975
:1002A0004091120150911301609114017091150158
:1002B000ECCFC536D1055CF0C456D10940910A0196
:1002C00050910B0160910C0170910D01DECFC33391
:1002D000D10554F0E29740910601509107016091D9
:1002E000080170910901D1CF1C161D06CCF4409174
:1002F0000E0150910F016091100170911101C5CF55
:10030000CB30D1056CF02FEF3FEF4FEF50E0B8014D
:1003100080E291E00E9465072A97065F1F4FF0CFA9
:10032000DF91CF911F910F910895CF938EE00E949E
:10033000E404BC01990F880B990B0E94C0022DECBC
:100340003CEC4CE45EE30E940003C1E020E030E0BE
:1003500040E251E40E94FB0218160CF0C0E08C2F22
:10036000CF9108958F929F92AF92BF92CF92DF92DA
:10037000EF92FF920F931F93CF93DF93C0E0D0E0F3
:100380002196C630D10511F4C0E0D0E0FE01EE0F99
:10039000FF1FEE0FFF1FEA5FFE4FC080D180E2809B
:1003A000F38000E010E0A7019601B80180E291E03F
:1003B0000E94650780E291E00E9436060E943C049C
:1003C0006093340170933501809336019093370127
:1003D0000E943C048090340190903501A090360139
:1003E000B0903701DC01CB0188199909AA09BB0932
:1003F0004E97A105B10588F40E949501882341F329
:10040000DF91CF911F910F91FF90EF90DF90CF90F0
:10041000BF90AF909F908F9008950F5F1F4F023352
:10042000110509F6ADCF80E291E00E94ED050E9432
:10043000B20140E050E0BA0182E390E00E94AB00DC
:1004400080E291E00E943606809138019091390156
:10045000019690933901809338010E94D70080E281
:1004600091E00E9436060E943C0460933401709330
:10047000350180933601909337010E943C046093CC
:1004800030017093310180933201909333010895CC
:100490000F931F930E943C04009134011091350189
:1004A0002091360130913701DC01CB01801B910B8B
:1004B000A20BB30B21E089379105A105B10508F422
:1004C00020E0822F1F910F9108950F931F930E9498
:1004D0009501882321F00E944802811122C00E94C8
:1004E0003C04009130011091310120913201309192
:1004F0003301DC01CB01801B910BA20BB30B8136C6
:100500009A4EA105B10538F10E942C0180E291E0DC
:100510000E94360668EE73E080E090E00E946D0471
:10052000F9CF80913801909139010196909339016A
:10053000809338010E94D70080E291E00E94360645
:100540000E943C046093340170933501809336011E
:1005500090933701C4CF1F910F9108950F9309E035
:1005600025E044E062E370E080E291E00E9425072C
:100570000F91089580E291E00C940206E89409C07E
:1005800097FB3EF490958095709561957F4F8F4FC6
:100590009F4F9923A9F0F92F96E9BB279395F695DC
:1005A000879577956795B795F111F8CFFAF4BB0F5A
:1005B00011F460FF1BC06F5F7F4F8F4F9F4F16C0BE
:1005C000882311F096E911C0772321F09EE8872F48
:1005D000762F05C0662371F096E8862F70E060E004
:1005E0002AF09A95660F771F881FDAF7880F96957D
:1005F000879597F908950E946D0308F48FEF089589
:100600000E9413030C94A8030E949A0338F00E94DE
:10061000A10320F0952311F00C9491030C949703FF
:1006200011240C94DC030E94B90370F3959FC1F36D
:10063000950F50E0551F629FF001729FBB27F00D90
:10064000B11D639FAA27F00DB11DAA1F649F6627E5
:10065000B00DA11D661F829F2227B00DA11D621F34
:10066000739FB00DA11D621F839FA00D611D221FEE
:10067000749F3327A00D611D231F849F600D211DD2
:10068000822F762F6A2F11249F5750409AF0F1F055
:1006900088234AF0EE0FFF1FBB1F661F771F881FBE
:1006A00091505040A9F79E3F510580F00C94910362
:1006B0000C94DC035F3FE4F3983ED4F38695779582
:1006C0006795B795F795E7959F5FC1F7FE2B880F64
:1006D000911D9695879597F90895990F0008550FE4
:1006E000AA0BE0E8FEEF16161706E807F907C0F0B8
:1006F00012161306E407F50798F0621B730B840BC0
:10070000950B39F40A2661F0232B242B252B21F499
:1007100008950A2609F4A140A6958FEF811D811D39
:10072000089597F99F6780E870E060E008959FEF73
:1007300080EC089500240A94161617061806090678
:10074000089500240A941216130614060506089547
:10075000092E0394000C11F4882352F0BB0F40F4CF
:10076000BF2B11F460FF04C06F5F7F4F8F4F9F4F0F
:10077000089557FD9058440F551F59F05F3F71F091
:100780004795880F97FB991F61F09F3F79F08795F8
:100790000895121613061406551FF2CF4695F1DF81
:1007A00008C0161617061806991FF1CF8695710511
:1007B000610508940895E894BB2766277727CB0145
:1007C00097F9089508950E94A9040E94E2030E94E7
:1007D0001302C0E0D0E00E9465022097E1F30E947E
:1007E0000000F9CF1F920F920FB60F9211242F9392
:1007F0003F938F939F93AF93BF9380913B019091D1
:100800003C01A0913D01B0913E0130913A0123E0BD
:10081000230F2D3720F40196A11DB11D05C026E838
:10082000230F0296A11DB11D20933A0180933B0135
:1008300090933C01A0933D01B0933E0180913F0114
:1008400090914001A0914101B09142010196A11DFA
:10085000B11D80933F0190934001A0934101B0935B
:100860004201BF91AF919F918F913F912F910F9036
:100870000FBE0F901F9018952FB7F89460913B0111
:1008800070913C0180913D0190913E012FBF0895F0
:100890003FB7F89480913F0190914001A0914101B0
:1008A000B091420126B5A89B05C02F3F19F00196D3
:1008B000A11DB11D3FBFBA2FA92F982F8827820FE6
:1008C000911DA11DB11DBC01CD0142E0660F771F36
:1008D000881F991F4A95D1F708958F929F92AF92E2
:1008E000BF92CF92DF92EF92FF926B017C010E9448
:1008F00048044B015C01C114D104E104F10401F18D
:100900000E94D2070E944804DC01CB018819990992
:10091000AA09BB09883E9340A105B10560F321E017
:10092000C21AD108E108F10888EE880E83E0981E0B
:10093000A11CB11CC114D104E104F10419F7DBCFEF
:10094000FF90EF90DF90CF90BF90AF909F908F90EF
:100950000895789484B5826084BD84B5816084BD37
:1009600085B5826085BD85B5816085BDEEE6F0E028
:10097000808181608083E1E8F0E010828081826084
:100980008083808181608083E0E8F0E08081816005
:100990008083E1EBF0E0808184608083E0EBF0E035
:1009A000808181608083EAE7F0E0808184608083D9
:1009B0008081826080838081816080838081806883
:1009C00080831092C10008958E3008F08E502091DF
:1009D0001E0190E4299F900111248770822B80933F
:1009E0007C0080917A00806480937A0080917A0004
:1009F00086FDFCCF809178002091790090E0922BC9
:100A00000895833081F028F4813099F08230A1F08C
:100A100008958730A9F08830B9F08430D1F48091FE
:100A200080008F7D03C0809180008F77809380004D
:100A3000089584B58F7702C084B58F7D84BD0895F5
:100A40008091B0008F7703C08091B0008F7D80933C
:100A5000B0000895CF93DF9390E0FC01E458FF4F7E
:100A60002491FC01E057FF4F8491882361F190E0CD
:100A7000880F991FFC01E255FF4FC591D491FC01ED
:100A8000EC55FF4FA591B491611109C09FB7F8943F
:100A90008881209582238883EC912E230BC06230BD
:100AA00061F49FB7F8948881322F3095832388832F
:100AB000EC912E2B2C939FBF06C08FB7F894E88142
:100AC0002E2B28838FBFDF91CF9108951F93CF9353
:100AD000DF93282F30E0F901E859FF4F8491F901A5
:100AE000E458FF4FD491F901E057FF4FC491CC2354
:100AF000C1F0162F81110E940105EC2FF0E0EE0FDE
:100B0000FF1FEC55FF4FA591B4919FB7F8941111B9
:100B100004C08C91D095D82302C0EC91DE2BDC93DD
:100B20009FBFDF91CF911F9108958EBD00000DB43E
:100B300007FEFDCF8EB508950E9488078CB58C7F87
:100B40008CBD8DB581608DBD8CB58F7D8CBD8CB518
:100B5000837F8CBD0895CF93DF93EC0161E08A81A0
:100B60000E942A0561E08B810E942A058A8190E01B
:100B7000FC01E057FF4FE491F0E0EE0FFF1FEC5552
:100B8000FF4FA591B491BD87AC872B8130E0F9016F
:100B9000E057FF4FE491F0E0EE0FFF1FEC55FF4FE1
:100BA000459154915F874E87FC01E458FF4F849133
:100BB0008A87F901E458FF4FE491EB879C91E82F75
:100BC000E095E923EC93EE85FF8590818B858095F8
:100BD00089238083DF91CF910895FC0122812F3FEB
:100BE00011F40C949C050C94AB05CF93DF93EC01AE
:100BF00060E08A810E942A0560E08B81DF91CF91BD
:100C00000C942A05CF93DF93EC018D819E81009790
:100C100011F00E9471088A818F3F21F4DF91CF91FA
:100C20000C94BE07CE01DF91CF910C94F505FC0129
:100C300029E02150D1F0A485B58582859C9167FF7C
:100C400002C0892B02C0809589238C93A685B78525
:100C50009C918385892B8C93A685B7859C918385F0
:100C6000809589238C93660FE4CF0895BF92CF922D
:100C7000DF92EF92FF920F931F93CF93DF93FC01CC
:100C8000058116810115110509F48AC0EC01E08087
:100C9000F180B48082818F3F09F041C080E00E94E2
:100CA000950580E00E94950580E00E9495051EBC98
:100CB0004FEF0DB407FEFDCF4EBDF80183E09C81E0
:100CC000992331F02081B29E90011124932F01C00D
:100CD00090810DB407FEFDCF9EBD815031968111EC
:100CE000EECF0D5F1F4FF1E0EF1AF10811F70DB4D1
:100CF00007FEFDCF8FEF0E9495058FEF0E949505AF
:100D00008FEF0E9495058FEFDF91CF911F910F918B
:100D1000FF90EF90DF90CF90BF900C94950584E00A
:100D2000D82E60E0CE010E941706DA94D110F9CFD8
:100D30008C81882339F16FEFCE010E94170668017C
:100D40000D5F1F4FF60181916F01B89EC001112404
:100D5000692FCE010E941706C016D10699F7F1E05F
:100D6000EF1AF10841F714E015C0F60161916F0127
:100D7000CE010E941706C016D106B9F7F1E0EF1AAE
:100D8000F10889F36FEFCE010E94170668010D5F2D
:100D90001F4FEBCF6FEFCE010E9417061150D1F716
:100DA000DF91CF911F910F91FF90EF90DF90CF9047
:100DB000BF900895FC019781808520813181A90130
:100DC000981307C04D5F5F4F5695479556954795C9
:100DD00002C0440F551F420F531F60E070E0858131
:100DE00096810C94FA080F931F93CF93DF93EC0135
:100DF0008B018D819E81009711F00E9471089F8167
:100E00008885981307C0C80103969695879596958F
:100E1000879503C0C801880F991F800F911F0E94FA
:100E2000D9079E838D83892B49F019830883CE01CE
:100E3000DF91CF911F910F910C94DA0619821882DD
:100E4000DF91CF911F910F9108950F931F93FC0194
:100E500042832383148216821582802F83708783B6
:100E600010E0C80195958795959587958370808743
:100E700034E0159507953A95E1F703700187CF01A6
:100E80001F910F910C94F3060F93FC0180819181C7
:100E900068177907C0F4CB01880F991F680F791F75
:100EA00085819681680F791F8781DB01A80FB11DAD
:100EB0004C938085DB01A80FB11D2C938185FB012C
:100EC000E80FF11D00830F910895FC01808191814D
:100ED00068177907C0F4CB01880F991F680F791F35
:100EE00085819681680F791F8781DB01A80FB11D6D
:100EF0004C938085DB01A80FB11D3C938185FB01DC
:100F0000E80FF11D208308956F5FFC01648308954D
:100F1000CF93CFB7F89480914401811127C0EAE9BB
:100F2000F0E08491E6E8F0E09491E82FF0E0EE0F35
:100F3000FF1FE255FF4FA591B491EC91E92321F4F5
:100F400061E08AE00E94660561E08AE00E942A056D
:100F50008CB580618CBD8CB580648CBD61E08DE00A
:100F60000E942A0561E08BE00E942A0580914401DD
:100F70008F5F80934401CFBFCF9108959FB7F894BE
:100F800080914401882319F081508093440180911D
:100F90004401811105C08CB58F7B8CBD109243013B
:100FA0009FBF08950895EE0FFF1F0590F491E02D67
:100FB00009940F931F93CF93DF938230910510F420
:100FC00082E090E0E0914701F091480120E030E0BC
:100FD000A0E0B0E0309719F1408151810281138186
:100FE00048175907C8F08417950769F4109731F02E
:100FF00012960C93129713961C9327C000934701E7
:101000001093480122C02115310519F042175307EA
:1010100018F49A01BD01EF01DF01F801DBCF2115C2
:101020003105F9F0281B390B2430310580F48A8111
:101030009B816115710521F0FB019383828304C0BC
:101040009093480180934701FE01329644C0FE010F
:10105000E20FF31F81939193225031093983288342
:101060003AC02091450130914601232B41F4209153
:1010700002013091030130934601209345012091F4
:101080000001309101012115310541F42DB73EB722
:101090004091040150910501241B350BE09145015D
:1010A000F0914601E217F307A0F42E1B3F0B28171F
:1010B000390778F0AC014E5F5F4F2417350748F0D1
:1010C0004E0F5F1F509346014093450181939193CA
:1010D00002C0E0E0F0E0CF01DF91CF911F910F91CE
:1010E0000895CF93DF93009709F481C0FC013297F4
:1010F00013821282A0914701B0914801109781F4A8
:1011000020813181820F931F20914501309146014A
:101110002817390751F5F0934601E093450167C060
:10112000ED0120E030E0CE17DF0740F44A815B811B
:101130009E0141155105F1F0EA01F5CFD383C28339
:1011400040815181840F951FC817D90759F48881B0
:101150009981840F951F0296918380838A819B8158
:10116000938382832115310529F4F0934801E0939C
:1011700047013DC0E901FB83EA8349915991C40FBE
:10118000D51FEC17FD0761F480819181840F951FB5
:101190000296E90199838883828193819B838A8364
:1011A000E0E0F0E012968D919C911397009719F072
:1011B000FD01DC01F7CF8D919C9111979D012E5F70
:1011C0003F4F820F931F2091450130914601281710
:1011D000390769F4309729F41092480110924701B9
:1011E00002C013821282B0934601A0934501DF91A1
:1011F000CF910895DC0101C06D9341505040E0F75C
:10120000089510E0CDE5D0E004C0FE010E94D307B0
:0C1210002196CE35D107C9F7F894FFCF26
:10121C0000004901200000FF0000FF00000000005A
:10122C00FF0000FFA500FFFF0000CCFFCC00010079
:00000001FF
