:100000000C945E000C9486000C9486000C94860080
:100010000C9486000C9486000C9486000C94860048
:100020000C9486000C9486000C9486000C94860038
:100030000C9486000C9486000C9486000C94860028
:100040000C9423040C9486000C9486000C94860077
:100050000C9486000C9486000C9486000C94860008
:100060000C9486000C948600000000080002010039
:100070000003040700000000000000000102040863
:100080001020408001020408102001020408102002
:10009000040404040404040402020202020203032E
:1000A0000303030300000000250028002B000000CC
:1000B0000000240027002A00DF02EB0211241FBEEB
:1000C000CFEFD8E0DEBFCDBF11E0A0E0B1E0EEE7BA
:1000D000F2E102C005900D92A432B107D9F721E0F8
:1000E000A4E2B1E001C01D92AD34B207E1F710E027
:1000F000CDE5D0E004C02197FE010E940408CC3574
:10010000D107C9F70E9414040C9432090C94000022
:10011000EF92FF920F93CF93DF937C0160E084E234
:1001200091E00E94B507C0E0D0E0CE15DF056CF489
:10013000C233D10551F000E020E040E0BE0184E28E
:1001400091E00E9475072196F0CFDF91CF910F913A
:10015000FF90EF900895CF92DF92EF92FF920F936E
:100160001F93CF93DF938C016A017B010E9488006B
:100170006AEF84E291E00E94B507C0E0D0E0C017CA
:10018000D10764F4C233D10549F0A7019601BE013D
:1001900084E291E00E9496072196F1CFDF91CF9102
:1001A0001F910F91FF90EF90DF90CF900895CF9324
:1001B000DF93181619060CF05EC0EC0140910E0199
:1001C00050910F0160911001709111010E94AB00DC
:1001D000C333D1050CF44FC0409106015091070183
:1001E0006091080170910901CE01C2970E94AB0095
:1001F000C536D1050CF43FC040910A0150910B0166
:1002000060910C0170910D01CE01845691090E94FC
:10021000AB00C739D1057CF1409112015091130117
:100220006091140170911501CE01865991090E94C7
:10023000AB00C93CD105FCF040911601509117016B
:100240006091180170911901CE01885C91090E949A
:10025000AB00CB3FD1057CF040911A0150911B01BE
:1002600060911C0170911D01CE018A5F9109DF919F
:10027000CF910C94AB00DF91CF9108950F931F9312
:10028000CF93DF9384E291E00E940B07C0913C0181
:10029000D0913D01CB3FD10574F0CA5FD1094091A7
:1002A0001A0150911B0160911C0170911D01CE013A
:1002B0000E94AB0002C0C0E0D0E000913C01109170
:1002C0003D01093C11058CF0E801C85CD109409161
:1002D0001601509117016091180170911901CE011A
:1002E0000E94AB0009E010E03CC00739110564F042
:1002F000E801C659D1094091120150911301609152
:10030000140170911501EBCF0536110564F0E80179
:10031000C456D10940910A0150910B0160910C0122
:1003200070910D01DCCF033311055CF0E801E29719
:1003300040910601509107016091080170910901F7
:10034000CECF1016110674F640910E0150910F0198
:100350006091100170911101C8010E94AB00E80189
:10036000C1CFCB30D1056CF02FEF3FEF4FEF50E016
:10037000B80184E291E00E9496072A97065F1F4F1A
:10038000F0CFDF91CF911F910F910895CF938EE021
:100390000E941505BC01990F880B990B0E94F10270
:1003A0002DEC3CEC4CE45EE30E943103C1E020E024
:1003B00030E040E251E40E942C0318160CF0C0E03B
:1003C0008C2FCF9108958F929F92AF92BF92CF9230
:1003D000DF92EF92FF920F931F93CF93DF93C0E0D2
:1003E000D0E02196C730D10511F4C0E0D0E0FE0185
:1003F000EE0FFF1FEE0FFF1FEA5FFE4FC080D180A0
:10040000E280F38000E010E0A7019601B80184E2E9
:1004100091E00E94960784E291E00E9467060E94A4
:100420006D04609338017093390180933A01909381
:100430003B010E946D048090380190903901A0909A
:100440003A01B0903B01DC01CB0188199909AA0956
:10045000BB094E97A105B10588F40E94C601882307
:1004600041F3DF91CF911F910F91FF90EF90DF90BB
:10047000CF90BF90AF909F908F9008950F5F1F4FC8
:100480000233110509F6ADCF84E291E00E941E0609
:100490000E94E30140E050E0BA0182E390E00E9454
:1004A000AB0084E291E00E94670680913C0190914C
:1004B0003D01019690933D0180933C010E94D7003D
:1004C00084E291E00E9467060E946D046093380107
:1004D0007093390180933A0190933B010E946D041F
:1004E0006093340170933501809336019093370106
:1004F00008950F931F930E946D040091380110918D
:10050000390120913A0130913B01DC01CB01801B84
:10051000910BA20BB30B21E085369105A105B10526
:1005200008F420E0822F1F910F9108950F931F93DD
:100530000E94C601882321F00E947902811122C005
:100540000E946D0400913401109135012091360113
:1005500030913701DC01CB01801B910BA20BB30B57
:1005600081369A4EA105B10538F10E943E0184E220
:1005700091E00E94670668EE73E080E090E00E94E0
:100580009E04F9CF80913C0190913D01019690939A
:100590003D0180933C010E94D70084E291E00E94DB
:1005A00067060E946D04609338017093390180934F
:1005B0003A0190933B01C4CF1F910F9108950F937F
:1005C00009E025E044E062E370E084E291E00E940B
:1005D00056070F91089584E291E00C943306E89455
:1005E00009C097FB3EF490958095709561957F4F7B
:1005F0008F4F9F4F9923A9F0F92F96E9BB27939529
:10060000F695879577956795B795F111F8CFFAF438
:10061000BB0F11F460FF1BC06F5F7F4F8F4F9F4F69
:1006200016C0882311F096E911C0772321F09EE8C7
:10063000872F762F05C0662371F096E8862F70E02D
:1006400060E02AF09A95660F771F881FDAF7880F07
:100650009695879597F908950E949E0308F48FEF69
:1006600008950E9444030C94D9030E94CB0338F0F0
:100670000E94D20320F0952311F00C94C2030C9435
:10068000C80311240C940D040E94EA0370F3959F93
:10069000C1F3950F50E0551F629FF001729FBB2779
:1006A000F00DB11D639FAA27F00DB11DAA1F649F15
:1006B0006627B00DA11D661F829F2227B00DA11DC8
:1006C000621F739FB00DA11D621F839FA00D611D4E
:1006D000221F749F3327A00D611D231F849F600D6F
:1006E000211D822F762F6A2F11249F5750409AF098
:1006F000F1F088234AF0EE0FFF1FBB1F661F771F24
:10070000881F91505040A9F79E3F510580F00C94EE
:10071000C2030C940D045F3FE4F3983ED4F3869536
:1007200077956795B795F795E7959F5FC1F7FE2B8E
:10073000880F911D9695879597F90895990F000850
:10074000550FAA0BE0E8FEEF16161706E807F907A3
:10075000C0F012161306E407F50798F0621B730B3E
:10076000840B950B39F40A2661F0232B242B252BBF
:1007700021F408950A2609F4A140A6958FEF811D62
:10078000811D089597F99F6780E870E060E0089503
:100790009FEF80EC089500240A9416161706180699
:1007A0000906089500240A94121613061406050675
:1007B0000895092E0394000C11F4882352F0BB0F06
:1007C00040F4BF2B11F460FF04C06F5F7F4F8F4F69
:1007D0009F4F089557FD9058440F551F59F05F3FA4
:1007E00071F04795880F97FB991F61F09F3F79F053
:1007F00087950895121613061406551FF2CF4695D5
:10080000F1DF08C0161617061806991FF1CF869556
:100810007105610508940895E894BB27662777273A
:10082000CB0197F9089508950E94DA040E941304F9
:100830000E944402C0E0D0E00E9496022097E1F3BB
:100840000E940000F9CF1F920F920FB60F92112451
:100850002F933F938F939F93AF93BF9380913F01CB
:1008600090914001A0914101B091420130913E012F
:1008700023E0230F2D3720F40196A11DB11D05C0E3
:1008800026E8230F0296A11DB11D20933E018093FF
:100890003F0190934001A0934101B09342018091A8
:1008A000430190914401A0914501B0914601019608
:1008B000A11DB11D8093430190934401A093450174
:1008C000B0934601BF91AF919F918F913F912F912E
:1008D0000F900FBE0F901F9018952FB7F89460914E
:1008E0003F017091400180914101909142012FBFE1
:1008F00008953FB7F8948091430190914401A091ED
:100900004501B091460126B5A89B05C02F3F19F0BF
:100910000196A11DB11D3FBFBA2FA92F982F88277F
:10092000820F911DA11DB11DBC01CD0142E0660FDA
:10093000771F881F991F4A95D1F708958F929F922C
:10094000AF92BF92CF92DF92EF92FF926B017C0148
:100950000E9479044B015C01C114D104E104F1044B
:1009600001F10E9403080E947904DC01CB0188197F
:100970009909AA09BB09883E9340A105B10560F316
:1009800021E0C21AD108E108F10888EE880E83E060
:10099000981EA11CB11CC114D104E104F10419F783
:1009A000DBCFFF90EF90DF90CF90BF90AF909F9004
:1009B0008F900895789484B5826084BD84B58160F9
:1009C00084BD85B5826085BD85B5816085BDEEE657
:1009D000F0E0808181608083E1E8F0E01082808136
:1009E00082608083808181608083E0E8F0E08081A4
:1009F00081608083E1EBF0E0808184608083E0EBC4
:100A0000F0E0808181608083EAE7F0E080818460AB
:100A10008083808182608083808181608083808107
:100A2000806880831092C10008958E3008F08E5047
:100A30002091220190E4299F900111248770822B3C
:100A400080937C0080917A00806480937A0080910A
:100A50007A0086FDFCCF809178002091790090E0AB
:100A6000922B0895833081F028F4813099F0823000
:100A7000A1F008958730A9F08830B9F08430D1F41E
:100A8000809180008F7D03C0809180008F7780935C
:100A90008000089584B58F7702C084B58F7D84BDB2
:100AA00008958091B0008F7703C08091B0008F7D52
:100AB0008093B0000895CF93DF9390E0FC01E45859
:100AC000FF4F2491FC01E057FF4F8491882361F18F
:100AD00090E0880F991FFC01E255FF4FC591D4911A
:100AE000FC01EC55FF4FA591B491611109C09FB76E
:100AF000F8948881209582238883EC912E230BC063
:100B0000623061F49FB7F8948881322F3095832347
:100B10008883EC912E2B2C939FBF06C08FB7F8943F
:100B2000E8812E2B28838FBFDF91CF9108951F93EB
:100B3000CF93DF93282F30E0F901E859FF4F8491DC
:100B4000F901E458FF4FD491F901E057FF4FC491E8
:100B5000CC23C1F0162F81110E943205EC2FF0E05A
:100B6000EE0FFF1FEC55FF4FA591B4919FB7F8947E
:100B7000111104C08C91D095D82302C0EC91DE2BCA
:100B8000DC939FBFDF91CF911F9108958EBD000030
:100B90000DB407FEFDCF8EB508950E94B9078CB540
:100BA0008C7F8CBD8DB581608DBD8CB58F7D8CBDEE
:100BB0008CB5837F8CBD0895CF93DF93EC0161E00A
:100BC0008A810E945B0561E08B810E945B058A81BE
:100BD00090E0FC01E057FF4FE491F0E0EE0FFF1FC3
:100BE000EC55FF4FA591B491BD87AC872B8130E0C8
:100BF000F901E057FF4FE491F0E0EE0FFF1FEC55D5
:100C0000FF4F459154915F874E87FC01E458FF4F99
:100C100084918A87F901E458FF4FE491EB879C9116
:100C2000E82FE095E923EC93EE85FF8590818B8595
:100C3000809589238083DF91CF910895FC012281E3
:100C40002F3F11F40C94CD050C94DC05CF93DF936A
:100C5000EC0160E08A810E945B0560E08B81DF919E
:100C6000CF910C945B05CF93DF93EC018D819E8136
:100C7000009711F00E94A2088A818F3F21F4DF9132
:100C8000CF910C94EF07CE01DF91CF910C94260603
:100C9000FC0129E02150D1F0A485B58582859C9185
:100CA00067FF02C0892B02C0809589238C93A6859B
:100CB000B7859C918385892B8C93A685B7859C915C
:100CC0008385809589238C93660FE4CF0895BF9226
:100CD000CF92DF92EF92FF920F931F93CF93DF9308
:100CE000FC01058116810115110509F48AC0EC018A
:100CF000E080F180B48082818F3F09F041C080E0C4
:100D00000E94C60580E00E94C60580E00E94C605DC
:100D10001EBC4FEF0DB407FEFDCF4EBDF80183E0C2
:100D20009C81992331F02081B29E90011124932F50
:100D300001C090810DB407FEFDCF9EBD815031965C
:100D40008111EECF0D5F1F4FF1E0EF1AF10811F79F
:100D50000DB407FEFDCF8FEF0E94C6058FEF0E94F6
:100D6000C6058FEF0E94C6058FEFDF91CF911F91CF
:100D70000F91FF90EF90DF90CF90BF900C94C6053D
:100D800084E0D82E60E0CE010E944806DA94D110AB
:100D9000F9CF8C81882339F16FEFCE010E9448068C
:100DA00068010D5F1F4FF60181916F01B89EC00170
:100DB0001124692FCE010E944806C016D10699F76A
:100DC000F1E0EF1AF10841F714E015C0F601619166
:100DD0006F01CE010E944806C016D106B9F7F1E0B6
:100DE000EF1AF10889F36FEFCE010E9448066801FF
:100DF0000D5F1F4FEBCF6FEFCE010E9448061150E1
:100E0000D1F7DF91CF911F910F91FF90EF90DF907D
:100E1000CF90BF900895FC0197818085208131811A
:100E2000A901981307C04D5F5F4F5695479556959A
:100E3000479502C0440F551F420F531F60E070E0FA
:100E4000858196810C942B090F931F93CF93DF9389
:100E5000EC018B018D819E81009711F00E94A20808
:100E60009F818885981307C0C8010396969587953A
:100E70009695879503C0C801880F991F800F911F11
:100E80000E940A089E838D83892B49F01983088369
:100E9000CE01DF91CF911F910F910C940B07198216
:100EA0001882DF91CF911F910F9108950F931F9397
:100EB000FC0142832383148216821582802F837063
:100EC000878310E0C80195958795959587958370E0
:100ED000808734E0159507953A95E1F7037001870F
:100EE000CF011F910F910C9424070F93FC01808177
:100EF000918168177907C0F4CB01880F991F680F9B
:100F0000791F85819681680F791F8781DB01A80F82
:100F1000B11D4C938085DB01A80FB11D2C938185F9
:100F2000FB01E80FF11D00830F910895FC01808102
:100F3000918168177907C0F4CB01880F991F680F5A
:100F4000791F85819681680F791F8781DB01A80F42
:100F5000B11D4C938085DB01A80FB11D3C938185A9
:100F6000FB01E80FF11D208308956F5FFC0164838E
:100F70000895CF93CFB7F89480914801811127C08D
:100F8000EAE9F0E08491E6E8F0E09491E82FF0E0FF
:100F9000EE0FFF1FE255FF4FA591B491EC91E923AD
:100FA00021F461E08AE00E94970561E08AE00E94F6
:100FB0005B058CB580618CBD8CB580648CBD61E0B7
:100FC0008DE00E945B0561E08BE00E945B058091F3
:100FD00048018F5F80934801CFBFCF9108959FB79D
:100FE000F89480914801882319F08150809348013A
:100FF00080914801811105C08CB58F7B8CBD10920A
:1010000047019FBF08950895EE0FFF1F0590F491CB
:10101000E02D09940F931F93CF93DF9382309105B6
:1010200010F482E090E0E0914B01F0914C0120E05F
:1010300030E0A0E0B0E0309719F1408151810281A9
:10104000138148175907C8F08417950769F410975A
:1010500031F012960C93129713961C9327C00093AD
:101060004B0110934C0122C02115310519F0421794
:10107000530718F49A01BD01EF01DF01F801DBCF3E
:1010800021153105F9F0281B390B2430310580F486
:101090008A819B816115710521F0FB019383828315
:1010A00004C090934C0180934B01FE01329644C0E2
:1010B000FE01E20FF31F819391932250310939838E
:1010C00028833AC02091490130914A01232B41F4F1
:1010D000209102013091030130934A01209349018C
:1010E00020910001309101012115310541F42DB706
:1010F0003EB74091040150910501241B350BE0914E
:101100004901F0914A01E217F307A0F42E1B3F0BAF
:101110002817390778F0AC014E5F5F4F2417350769
:1011200048F04E0F5F1F50934A014093490181934D
:10113000919302C0E0E0F0E0CF01DF91CF911F91E9
:101140000F910895CF93DF93009709F481C0FC01BC
:10115000329713821282A0914B01B0914C011097EB
:1011600081F420813181820F931F209149013091B8
:101170004A012817390751F5F0934A01E0934901D4
:1011800067C0ED0120E030E0CE17DF0740F44A8170
:101190005B819E0141155105F1F0EA01F5CFD38342
:1011A000C28340815181840F951FC817D90759F414
:1011B00088819981840F951F0296918380838A810B
:1011C0009B81938382832115310529F4F0934C018F
:1011D000E0934B013DC0E901FB83EA8349915991BA
:1011E000C40FD51FEC17FD0761F480819181840F36
:1011F000951F0296E90199838883828193819B835D
:101200008A83E0E0F0E012968D919C91139700970D
:1012100019F0FD01DC01F7CF8D919C9111979D0193
:101220002E5F3F4F820F931F2091490130914A0159
:101230002817390769F4309729F410924C0110925D
:101240004B0102C013821282B0934A01A09349015C
:10125000DF91CF910895DC0101C06D934150504062
:10126000E0F7089510E0CDE5D0E004C0FE010E9453
:0E12700004082196CE35D107C9F7F894FFCFB8
:10127E0000004D01200000FF0000FF0000000000F4
:10128E00FF0000FFA500FFFF0000FF00FF00CCFFE6
:04129E00CC0001007F
:00000001FF
