:100000000C945E000C9486000C9486000C94860080
:100010000C9486000C9486000C9486000C94860048
:100020000C9486000C9486000C9486000C94860038
:100030000C9486000C9486000C9486000C94860028
:100040000C94CC030C9486000C9486000C948600CF
:100050000C9486000C9486000C9486000C94860008
:100060000C9486000C948600000000080002010039
:100070000003040700000000000000000102040863
:100080001020408001020408102001020408102002
:10009000040404040404040402020202020203032E
:1000A0000303030300000000250028002B000000CC
:1000B0000000240027002A007202940211241FBEAF
:1000C000CFEFD8E0DEBFCDBF11E0A0E0B1E0E4E1CA
:1000D000F2E102C005900D92A432B107D9F721E0F8
:1000E000A4E2B1E001C01D92AF34B207E1F710E025
:1000F000CDE5D0E004C02197FE010E94CF07CC35AA
:10010000D107C9F70E94BD030C94FD080C940000B0
:10011000EF92FF920F93CF93DF937C0160E084E234
:1001200091E00E945E07C0E0D0E0CE15DF056CF4E0
:10013000C233D10551F000E020E040E0BE0184E28E
:1001400091E00E941E072196F0CFDF91CF910F9191
:10015000FF90EF900895CF92DF92EF92FF920F936E
:100160001F93CF93DF938C016A017B01C22F0E9402
:1001700088006C2F84E291E00E945E07C0E0D0E02E
:10018000C017D10764F4C233D10549F0A701960125
:10019000BE0184E291E00E943F072196F1CFDF91FA
:1001A000CF911F910F91FF90EF90DF90CF90089526
:1001B0008CED80930A0140913A0150913B0160918E
:1001C0003C0170913D012CED82E390E00E94AB0078
:1001D00084E291E00C9410060F931F93CF93DF936A
:1001E0006AEF84E291E00E945E07C0E0D0E002E3A3
:1001F00010E020913A0130913B0140913C01509137
:100200003D01BE0184E291E00E943F0720913A0146
:1002100030913B0140913C0150913D01B8016C1B74
:100220007D0B84E291E00E943F0784E291E00E940E
:10023000100663E270E080E090E00E94470421969F
:10024000CA31D105B1F6DF91CF911F910F91089579
:1002500084E291E00E94C7050E94EC000E9416040F
:100260006093340170933501809336019093370188
:10027000089580913E0190913F010196863091054D
:1002800029F090933F0180933E0104C010923F01FA
:1002900010923E01E0913E01F0913F01EE0FFF1FF1
:1002A000EE0FFF1FE55FFE4F80819181A281B38138
:1002B00080933A0190933B01A0933C01B0933D01A0
:1002C00008950E941604DC01CB0183709927AA27A8
:1002D000BB27892B8A2B8B2BD1F480910A0181506B
:1002E000853008F485E080930A0140913A015091ED
:1002F0003B0160913C0170913D0120910A0182E334
:1003000090E00E94AB0084E291E00C941006089506
:100310000E94160428E230E040E050E00E94AD0761
:10032000672B682B692B09F06EC040913801509102
:1003300039014F5F5F4F509339014093380120914D
:100340000801309109012F5F3F4F3093090120933D
:100350000801809106019091070101969093070191
:10036000809306014233510521F410923901109215
:1003700038012233310521F410920901109208014D
:10038000C29721F4109207011092060184E291E0D5
:100390000E94B40666E984E291E00E945E07209123
:1003A0003A0130913B0140913C0150913D016091F7
:1003B00038017091390184E291E00E943F07209159
:1003C0003A0130913B0140913C0150913D016091D7
:1003D00008017091090184E291E00E943F07209199
:1003E0003A0130913B0140913C0150913D016091B7
:1003F00006017091070184E291E00E943F0784E2C8
:1004000091E00C9410060895CF938EE00E94BE04F4
:10041000BC01990F880B990B0E949A022DEC3CECC1
:100420004CE45EE30E94DA02C1E020E030E040E20A
:1004300051E40E94D50218160CF0C0E08C2FCF9129
:1004400008950F931F930E94160400913401109198
:1004500035012091360130913701DC01CB01801B41
:10046000910BA20BB30B21E0CD97A105B10508F4C8
:1004700020E0822F1F910F910895E0913E01F091AD
:100480003F01EE0FFF1FEE0FFF1FE55FFE4F808164
:100490009181A281B38180933A0190933B01A09313
:1004A0003C01B0933D010E940402882321F00E9488
:1004B0002102811108C080910A01853011F00C944D
:1004C00061010C9488010E94D8000E9439010E94A9
:1004D0001604609334017093350180933601909334
:1004E0003701E9CF0F93E0913E01F0913F01EE0F0C
:1004F000FF1FEE0FFF1FE55FFE4F80819181A281FC
:10050000B38180933A0190933B01A0933C01B09357
:100510003D0109E025E044E062E370E084E291E01F
:100520000E94FF060F91089584E291E00C94DC058F
:10053000E89409C097FB3EF490958095709561957D
:100540007F4F8F4F9F4F9923A9F0F92F96E9BB2733
:100550009395F695879577956795B795F111F8CFAF
:10056000FAF4BB0F11F460FF1BC06F5F7F4F8F4F1A
:100570009F4F16C0882311F096E911C0772321F010
:100580009EE8872F762F05C0662371F096E8862FA8
:1005900070E060E02AF09A95660F771F881FDAF7FF
:1005A000880F9695879597F908950E94470308F458
:1005B0008FEF08950E94ED020C9482030E94740351
:1005C00038F00E947B0320F0952311F00C946B030C
:1005D0000C94710311240C94B6030E94930370F3DE
:1005E000959FC1F3950F50E0551F629FF001729FD8
:1005F000BB27F00DB11D639FAA27F00DB11DAA1FE7
:10060000649F6627B00DA11D661F829F2227B00D33
:10061000A11D621F739FB00DA11D621F839FA00DBE
:10062000611D221F749F3327A00D611D231F849F0E
:10063000600D211D822F762F6A2F11249F57504065
:100640009AF0F1F088234AF0EE0FFF1FBB1F661FE0
:10065000771F881F91505040A9F79E3F510580F0A9
:100660000C946B030C94B6035F3FE4F3983ED4F311
:10067000869577956795B795F795E7959F5FC1F74D
:10068000FE2B880F911D9695879597F90895990FE0
:100690000008550FAA0BE0E8FEEF16161706E8074C
:1006A000F907C0F012161306E407F50798F0621B6D
:1006B000730B840B950B39F40A2661F0232B242B42
:1006C000252B21F408950A2609F4A140A6958FEF61
:1006D000811D811D089597F99F6780E870E060E0B3
:1006E00008959FEF80EC089500240A9416161706CB
:1006F00018060906089500240A9412161306140613
:1007000005060895092E0394000C11F4882352F075
:10071000BB0F40F4BF2B11F460FF04C06F5F7F4F2D
:100720008F4F9F4F089557FD9058440F551F59F014
:100730005F3F71F04795880F97FB991F61F09F3FCE
:1007400079F087950895121613061406551FF2CFF7
:100750004695F1DF08C0161617061806991FF1CF47
:1007600086957105610508940895E894BB2766276E
:100770007727CB0197F9089508950E9483040E947A
:10078000BC030E942801C0E0D0E00E943D022097F7
:10079000E1F30E940000F9CF1F920F920FB60F9263
:1007A00011242F933F938F939F93AF93BF93809187
:1007B000410190914201A0914301B09144013091D7
:1007C000400123E0230F2D3720F40196A11DB11D18
:1007D00005C026E8230F0296A11DB11D20934001FC
:1007E0008093410190934201A0934301B09344014F
:1007F0008091450190914601A0914701B091480137
:100800000196A11DB11D8093450190934601A093CF
:100810004701B0934801BF91AF919F918F913F9154
:100820002F910F900FBE0F901F9018952FB7F8942F
:100830006091410170914201809143019091440186
:100840002FBF08953FB7F8948091450190914601DC
:10085000A0914701B091480126B5A89B05C02F3F44
:1008600019F00196A11DB11D3FBFBA2FA92F982FD6
:100870008827820F911DA11DB11DBC01CD0142E051
:10088000660F771F881F991F4A95D1F708958F9299
:100890009F92AF92BF92CF92DF92EF92FF926B0145
:1008A0007C010E9422044B015C01C114D104E104CB
:1008B000F10401F10E94AC070E942204DC01CB018B
:1008C00088199909AA09BB09883E9340A105B10579
:1008D00060F321E0C21AD108E108F10888EE880E21
:1008E00083E0981EA11CB11CC114D104E104F104E1
:1008F00019F7DBCFFF90EF90DF90CF90BF90AF90D4
:100900009F908F900895789484B5826084BD84B55B
:10091000816084BD85B5826085BD85B5816085BDFA
:10092000EEE6F0E0808181608083E1E8F0E0108213
:10093000808182608083808181608083E0E8F0E054
:10094000808181608083E1EBF0E08081846080833E
:10095000E0EBF0E0808181608083EAE7F0E0808175
:1009600084608083808182608083808181608083D5
:100970008081806880831092C10008958E3008F0D5
:100980008E502091230190E4299F900111248770BB
:10099000822B80937C0080917A00806480937A001F
:1009A00080917A0086FDFCCF8091780020917900BB
:1009B00090E0922B0895833081F028F4813099F0F3
:1009C0008230A1F008958730A9F08830B9F08430E2
:1009D000D1F4809180008F7D03C0809180008F775B
:1009E00080938000089584B58F7702C084B58F7D91
:1009F00084BD08958091B0008F7703C08091B000CE
:100A00008F7D8093B0000895CF93DF9390E0FC0139
:100A1000E458FF4F2491FC01E057FF4F8491882355
:100A200061F190E0880F991FFC01E255FF4FC591DD
:100A3000D491FC01EC55FF4FA591B491611109C00F
:100A40009FB7F8948881209582238883EC912E2388
:100A50000BC0623061F49FB7F8948881322F3095D3
:100A600083238883EC912E2B2C939FBF06C08FB7D6
:100A7000F894E8812E2B28838FBFDF91CF910895C2
:100A80001F93CF93DF93282F30E0F901E859FF4FF0
:100A90008491F901E458FF4FD491F901E057FF4FD9
:100AA000C491CC23C1F0162F81110E94DB04EC2FDE
:100AB000F0E0EE0FFF1FEC55FF4FA591B4919FB7EB
:100AC000F894111104C08C91D095D82302C0EC91F8
:100AD000DE2BDC939FBFDF91CF911F9108958EBDD8
:100AE00000000DB407FEFDCF8EB508950E94620789
:100AF0008CB58C7F8CBD8DB581608DBD8CB58F7DA7
:100B00008CBD8CB5837F8CBD0895CF93DF93EC01B2
:100B100061E08A810E94040561E08B810E940405E6
:100B20008A8190E0FC01E057FF4FE491F0E0EE0F86
:100B3000FF1FEC55FF4FA591B491BD87AC872B816A
:100B400030E0F901E057FF4FE491F0E0EE0FFF1FB6
:100B5000EC55FF4F459154915F874E87FC01E45857
:100B6000FF4F84918A87F901E458FF4FE491EB87A6
:100B70009C91E82FE095E923EC93EE85FF85908129
:100B80008B85809589238083DF91CF910895FC0127
:100B900022812F3F11F40C9476050C948505CF9398
:100BA000DF93EC0160E08A810E94040560E08B81A4
:100BB000DF91CF910C940405CF93DF93EC018D81ED
:100BC0009E81009711F00E946D088A818F3F21F469
:100BD000DF91CF910C949807CE01DF91CF910C94C7
:100BE000CF05FC0129E02150D1F0A485B58582858F
:100BF0009C9167FF02C0892B02C0809589238C934A
:100C0000A685B7859C918385892B8C93A685B7850E
:100C10009C918385809589238C93660FE4CF0895FA
:100C2000BF92CF92DF92EF92FF920F931F93CF93D9
:100C3000DF93FC01058116810115110509F48AC0B5
:100C4000EC01E080F180B48082818F3F09F041C0E7
:100C500080E00E946F0580E00E946F0580E00E94A6
:100C60006F051EBC4FEF0DB407FEFDCF4EBDF80162
:100C700083E09C81992331F02081B29E9001112460
:100C8000932F01C090810DB407FEFDCF9EBD815012
:100C900031968111EECF0D5F1F4FF1E0EF1AF10891
:100CA00011F70DB407FEFDCF8FEF0E946F058FEF98
:100CB0000E946F058FEF0E946F058FEFDF91CF913C
:100CC0001F910F91FF90EF90DF90CF90BF900C9409
:100CD0006F0584E0D82E60E0CE010E94F105DA9421
:100CE000D110F9CF8C81882339F16FEFCE010E94AA
:100CF000F10568010D5F1F4FF60181916F01B89EEC
:100D0000C0011124692FCE010E94F105C016D10641
:100D100099F7F1E0EF1AF10841F714E015C0F60178
:100D200061916F01CE010E94F105C016D106B9F79D
:100D3000F1E0EF1AF10889F36FEFCE010E94F1059F
:100D400068010D5F1F4FEBCF6FEFCE010E94F105E1
:100D50001150D1F7DF91CF911F910F91FF90EF903C
:100D6000DF90CF90BF900895FC019781808520810E
:100D70003181A901981307C04D5F5F4F5695479584
:100D80005695479502C0440F551F420F531F60E010
:100D900070E0858196810C94F6080F931F93CF9392
:100DA000DF93EC018B018D819E81009711F00E94F1
:100DB0006D089F818885981307C0C8010396969592
:100DC00087959695879503C0C801880F991F800F56
:100DD000911F0E94D5079E838D83892B49F019832B
:100DE0000883CE01DF91CF911F910F910C94B4062F
:100DF00019821882DF91CF911F910F9108950F935F
:100E00001F93FC0142832383148216821582802F54
:100E10008370878310E0C801959587959595879590
:100E20008370808734E0159507953A95E1F7037054
:100E30000187CF011F910F910C94CD060F93FC01F8
:100E40008081918168177907C0F4CB01880F991FC1
:100E5000680F791F85819681680F791F8781DB0173
:100E6000A80FB11D4C938085DB01A80FB11D2C93F9
:100E70008185FB01E80FF11D00830F910895FC01AE
:100E80008081918168177907C0F4CB01880F991F81
:100E9000680F791F85819681680F791F8781DB0133
:100EA000A80FB11D4C938085DB01A80FB11D3C93A9
:100EB0008185FB01E80FF11D208308956F5FFC0120
:100EC00064830895CF93CFB7F89480914A0181113C
:100ED00027C0EAE9F0E08491E6E8F0E09491E82F99
:100EE000F0E0EE0FFF1FE255FF4FA591B491EC919A
:100EF000E92321F461E08AE00E94400561E08AE094
:100F00000E9404058CB580618CBD8CB580648CBD5D
:100F100061E08DE00E94040561E08BE00E94040521
:100F200080914A018F5F80934A01CFBFCF9108958E
:100F30009FB7F89480914A01882319F081508093DB
:100F40004A0180914A01811105C08CB58F7B8CBD0F
:100F5000109249019FBF08950895A1E21A2EAA1B7D
:100F6000BB1BFD010DC0AA1FBB1FEE1FFF1FA21759
:100F7000B307E407F50720F0A21BB30BE40BF50B56
:100F8000661F771F881F991F1A9469F760957095DF
:100F9000809590959B01AC01BD01CF010895EE0FA6
:100FA000FF1F0590F491E02D09940F931F93CF93A9
:100FB000DF938230910510F482E090E0E0914D01E2
:100FC000F0914E0120E030E0A0E0B0E0309719F160
:100FD000408151810281138148175907C8F0841755
:100FE000950769F4109731F012960C9312971396A7
:100FF0001C9327C000934D0110934E0122C0211570
:10100000310519F04217530718F49A01BD01EF0199
:10101000DF01F801DBCF21153105F9F0281B390B71
:101020002430310580F48A819B816115710521F09E
:10103000FB019383828304C090934E0180934D0102
:10104000FE01329644C0FE01E20FF31F819391939B
:1010500022503109398328833AC020914B013091C5
:101060004C01232B41F42091020130910301309374
:101070004C0120934B012091000130910101211579
:10108000310541F42DB73EB740910401509105015F
:10109000241B350BE0914B01F0914C01E217F30753
:1010A000A0F42E1B3F0B2817390778F0AC014E5FD8
:1010B0005F4F2417350748F04E0F5F1F50934C01C8
:1010C00040934B018193919302C0E0E0F0E0CF01A7
:1010D000DF91CF911F910F910895CF93DF930097E8
:1010E00009F481C0FC01329713821282A0914D0154
:1010F000B0914E01109781F420813181820F931FAE
:1011000020914B0130914C012817390751F5F0938C
:101110004C01E0934B0167C0ED0120E030E0CE17B9
:10112000DF0740F44A815B819E0141155105F1F0D2
:10113000EA01F5CFD383C28340815181840F951F8B
:10114000C817D90759F488819981840F951F029691
:10115000918380838A819B819383828321153105CA
:1011600029F4F0934E01E0934D013DC0E901FB836A
:10117000EA8349915991C40FD51FEC17FD0761F41B
:1011800080819181840F951F0296E901998388835C
:10119000828193819B838A83E0E0F0E012968D91B7
:1011A0009C911397009719F0FD01DC01F7CF8D9109
:1011B0009C9111979D012E5F3F4F820F931F2091AD
:1011C0004B0130914C012817390769F4309729F405
:1011D00010924E0110924D0102C013821282B09300
:1011E0004C01A0934B01DF91CF910895DC0101C028
:1011F0006D9341505040E0F7089510E0CDE5D0E008
:1012000004C0FE010E94CF072196CE35D107C9F751
:04121000F894FFCF80
:1012140000004F012000220010000500FF0000FF25
:101224000000000000FF0000FFA500FFFF0000CC4D
:04123400FFCC0001EA
:00000001FF
